{"abi":[{"type":"constructor","inputs":[{"name":"_admin","type":"address","internalType":"address"},{"name":"_cUSD","type":"address","internalType":"address"}],"stateMutability":"nonpayable"},{"type":"function","name":"admin","inputs":[],"outputs":[{"name":"","type":"address","internalType":"address"}],"stateMutability":"view"},{"type":"function","name":"cUSD","inputs":[],"outputs":[{"name":"","type":"address","internalType":"contract IERC20"}],"stateMutability":"view"},{"type":"function","name":"createEvent","inputs":[{"name":"eventId","type":"bytes32","internalType":"bytes32"},{"name":"ticketPrice","type":"uint256","internalType":"uint256"},{"name":"creator","type":"address","internalType":"address"}],"outputs":[],"stateMutability":"nonpayable"},{"type":"function","name":"distributePrize","inputs":[{"name":"eventId","type":"bytes32","internalType":"bytes32"},{"name":"winners","type":"address[]","internalType":"address[]"},{"name":"shares","type":"uint256[]","internalType":"uint256[]"}],"outputs":[],"stateMutability":"nonpayable"},{"type":"function","name":"emergencyRefund","inputs":[{"name":"eventId","type":"bytes32","internalType":"bytes32"}],"outputs":[],"stateMutability":"nonpayable"},{"type":"function","name":"eventExists","inputs":[{"name":"","type":"bytes32","internalType":"bytes32"}],"outputs":[{"name":"","type":"bool","internalType":"bool"}],"stateMutability":"view"},{"type":"function","name":"getEventInfo","inputs":[{"name":"eventId","type":"bytes32","internalType":"bytes32"}],"outputs":[{"name":"creator","type":"address","internalType":"address"},{"name":"ticketPrice","type":"uint256","internalType":"uint256"},{"name":"prizePool","type":"uint256","internalType":"uint256"},{"name":"distributed","type":"bool","internalType":"bool"},{"name":"participantCount","type":"uint256","internalType":"uint256"}],"stateMutability":"view"},{"type":"function","name":"isParticipant","inputs":[{"name":"eventId","type":"bytes32","internalType":"bytes32"},{"name":"user","type":"address","internalType":"address"}],"outputs":[{"name":"","type":"bool","internalType":"bool"}],"stateMutability":"view"},{"type":"function","name":"register","inputs":[{"name":"eventId","type":"bytes32","internalType":"bytes32"}],"outputs":[],"stateMutability":"nonpayable"},{"type":"event","name":"EventCreated","inputs":[{"name":"eventId","type":"bytes32","indexed":true,"internalType":"bytes32"},{"name":"creator","type":"address","indexed":true,"internalType":"address"},{"name":"ticketPrice","type":"uint256","indexed":false,"internalType":"uint256"}],"anonymous":false},{"type":"event","name":"FundsRefunded","inputs":[{"name":"eventId","type":"bytes32","indexed":true,"internalType":"bytes32"},{"name":"totalRefunded","type":"uint256","indexed":false,"internalType":"uint256"}],"anonymous":false},{"type":"event","name":"ParticipantRegistered","inputs":[{"name":"eventId","type":"bytes32","indexed":true,"internalType":"bytes32"},{"name":"participant","type":"address","indexed":true,"internalType":"address"},{"name":"amount","type":"uint256","indexed":false,"internalType":"uint256"}],"anonymous":false},{"type":"event","name":"PrizeDistributed","inputs":[{"name":"eventId","type":"bytes32","indexed":true,"internalType":"bytes32"},{"name":"totalPrize","type":"uint256","indexed":false,"internalType":"uint256"}],"anonymous":false},{"type":"error","name":"AlreadyRegistered","inputs":[]},{"type":"error","name":"EmptyWinners","inputs":[]},{"type":"error","name":"EventAlreadyDistributed","inputs":[]},{"type":"error","name":"EventAlreadyExists","inputs":[]},{"type":"error","name":"EventNotFound","inputs":[]},{"type":"error","name":"InvalidTicketPrice","inputs":[]},{"type":"error","name":"LengthMismatch","inputs":[]},{"type":"error","name":"OnlyAdmin","inputs":[]},{"type":"error","name":"SharesMismatch","inputs":[]},{"type":"error","name":"TransferFailed","inputs":[]}],"bytecode":{"object":"0x60c060405234801561000f575f5ffd5b5060405161181e38038061181e833981810160405281019061003191906101da565b5f73ffffffffffffffffffffffffffffffffffffffff168273ffffffffffffffffffffffffffffffffffffffff160361009f576040517f08c379a000000000000000000000000000000000000000000000000000000000815260040161009690610272565b60405180910390fd5b5f73ffffffffffffffffffffffffffffffffffffffff168173ffffffffffffffffffffffffffffffffffffffff160361010d576040517f08c379a0000000000000000000000000000000000000000000000000000000008152600401610104906102da565b60405180910390fd5b8173ffffffffffffffffffffffffffffffffffffffff1660808173ffffffffffffffffffffffffffffffffffffffff16815250508073ffffffffffffffffffffffffffffffffffffffff1660a08173ffffffffffffffffffffffffffffffffffffffff168152505050506102f8565b5f5ffd5b5f73ffffffffffffffffffffffffffffffffffffffff82169050919050565b5f6101a982610180565b9050919050565b6101b98161019f565b81146101c3575f5ffd5b50565b5f815190506101d4816101b0565b92915050565b5f5f604083850312156101f0576101ef61017c565b5b5f6101fd858286016101c6565b925050602061020e858286016101c6565b9150509250929050565b5f82825260208201905092915050565b7f61646d696e207a65726f000000000000000000000000000000000000000000005f82015250565b5f61025c600a83610218565b915061026782610228565b602082019050919050565b5f6020820190508181035f83015261028981610250565b9050919050565b7f63555344207a65726f00000000000000000000000000000000000000000000005f82015250565b5f6102c4600983610218565b91506102cf82610290565b602082019050919050565b5f6020820190508181035f8301526102f1816102b8565b9050919050565b60805160a0516114db6103435f395f81816101f40152818161059b015281816109650152610c3b01525f8181610218015281816104300152818161070e0152610f0a01526114db5ff3fe608060405234801561000f575f5ffd5b5060043610610091575f3560e01c8063d92e0af211610064578063d92e0af21461012f578063de501f131461014b578063e1fa8e8414610167578063f765b6b114610183578063f851a440146101b757610091565b8063118e58bd146100955780631fccf672146100c5578063b870f85f146100e3578063c44a8923146100ff575b5f5ffd5b6100af60048036038101906100aa9190610f67565b6101d5565b6040516100bc9190610fac565b60405180910390f35b6100cd6101f2565b6040516100da919061103f565b60405180910390f35b6100fd60048036038101906100f891906110c6565b610216565b005b61011960048036038101906101149190611116565b6103ca565b6040516101269190610fac565b60405180910390f35b61014960048036038101906101449190610f67565b61042e565b005b6101656004803603810190610160919061120a565b61070c565b005b610181600480360381019061017c9190610f67565b610ac9565b005b61019d60048036038101906101989190610f67565b610e42565b6040516101ae9594939291906112b9565b60405180910390f35b6101bf610f08565b6040516101cc919061130a565b60405180910390f35b6001602052805f5260405f205f915054906101000a900460ff1681565b7f000000000000000000000000000000000000000000000000000000000000000081565b7f000000000000000000000000000000000000000000000000000000000000000073ffffffffffffffffffffffffffffffffffffffff163373ffffffffffffffffffffffffffffffffffffffff161461029b576040517f4755657900000000000000000000000000000000000000000000000000000000815260040160405180910390fd5b60015f8481526020019081526020015f205f9054906101000a900460ff16156102f0576040517f4659b7ce00000000000000000000000000000000000000000000000000000000815260040160405180910390fd5b5f5f5f8581526020019081526020015f20905081815f015f6101000a81548173ffffffffffffffffffffffffffffffffffffffff021916908373ffffffffffffffffffffffffffffffffffffffff1602179055508281600101819055506001805f8681526020019081526020015f205f6101000a81548160ff0219169083151502179055508173ffffffffffffffffffffffffffffffffffffffff16847fa635738c28d6d66a44b595bb91e4a51760d2f1cb33fd3517cb3a6ace8628e47b856040516103bc9190611323565b60405180910390a350505050565b5f5f5f8481526020019081526020015f206005015f8373ffffffffffffffffffffffffffffffffffffffff1673ffffffffffffffffffffffffffffffffffffffff1681526020019081526020015f205f9054906101000a900460ff16905092915050565b7f000000000000000000000000000000000000000000000000000000000000000073ffffffffffffffffffffffffffffffffffffffff163373ffffffffffffffffffffffffffffffffffffffff16146104b3576040517f4755657900000000000000000000000000000000000000000000000000000000815260040160405180910390fd5b60015f8281526020019081526020015f205f9054906101000a900460ff16610507576040517f5add554300000000000000000000000000000000000000000000000000000000815260040160405180910390fd5b5f5f5f8381526020019081526020015f209050806003015f9054906101000a900460ff1615610562576040517f3b3ee27d00000000000000000000000000000000000000000000000000000000815260040160405180910390fd5b6001816003015f6101000a81548160ff0219169083151502179055505f816001015490505f5f5b83600401805490508110156106c4575f7f000000000000000000000000000000000000000000000000000000000000000073ffffffffffffffffffffffffffffffffffffffff1663a9059cbb8660040184815481106105eb576105ea61133c565b5b905f5260205f20015f9054906101000a900473ffffffffffffffffffffffffffffffffffffffff16866040518363ffffffff1660e01b8152600401610631929190611369565b6020604051808303815f875af115801561064d573d5f5f3e3d5ffd5b505050506040513d601f19601f8201168201806040525081019061067191906113ba565b9050806106aa576040517f90b8ec1800000000000000000000000000000000000000000000000000000000815260040160405180910390fd5b83836106b69190611412565b925050806001019050610589565b505f8360020181905550837f8d67d48d8a63c387f0132fb626d6ec646a9c7ddf1327e05700257498cc20e8a4826040516106fe9190611323565b60405180910390a250505050565b7f000000000000000000000000000000000000000000000000000000000000000073ffffffffffffffffffffffffffffffffffffffff163373ffffffffffffffffffffffffffffffffffffffff1614610791576040517f4755657900000000000000000000000000000000000000000000000000000000815260040160405180910390fd5b60015f8681526020019081526020015f205f9054906101000a900460ff166107e5576040517f5add554300000000000000000000000000000000000000000000000000000000815260040160405180910390fd5b5f5f5f8781526020019081526020015f209050806003015f9054906101000a900460ff1615610840576040517f3b3ee27d00000000000000000000000000000000000000000000000000000000815260040160405180910390fd5b5f858590500361087c576040517f64f8195b00000000000000000000000000000000000000000000000000000000815260040160405180910390fd5b8282905085859050146108bb576040517fff633a3800000000000000000000000000000000000000000000000000000000815260040160405180910390fd5b5f5f5b848490508110156108fb578484828181106108dc576108db61133c565b5b90506020020135826108ee9190611412565b91508060010190506108be565b5081600201548114610939576040517faf40b63400000000000000000000000000000000000000000000000000000000815260040160405180910390fd5b6001826003015f6101000a81548160ff0219169083151502179055505f5b86869050811015610a83575f7f000000000000000000000000000000000000000000000000000000000000000073ffffffffffffffffffffffffffffffffffffffff1663a9059cbb8989858181106109b2576109b161133c565b5b90506020020160208101906109c79190611445565b8888868181106109da576109d961133c565b5b905060200201356040518363ffffffff1660e01b81526004016109fe929190611369565b6020604051808303815f875af1158015610a1a573d5f5f3e3d5ffd5b505050506040513d601f19601f82011682018060405250810190610a3e91906113ba565b905080610a77576040517f90b8ec1800000000000000000000000000000000000000000000000000000000815260040160405180910390fd5b50806001019050610957565b50867f92df01f6b1a3dfe12053c6c0c8d2f3847728344b95333540b700721b6ba6ad3e8360020154604051610ab89190611323565b60405180910390a250505050505050565b60015f8281526020019081526020015f205f9054906101000a900460ff16610b1d576040517f5add554300000000000000000000000000000000000000000000000000000000815260040160405180910390fd5b5f5f5f8381526020019081526020015f209050806003015f9054906101000a900460ff1615610b78576040517f3b3ee27d00000000000000000000000000000000000000000000000000000000815260040160405180910390fd5b806005015f3373ffffffffffffffffffffffffffffffffffffffff1673ffffffffffffffffffffffffffffffffffffffff1681526020019081526020015f205f9054906101000a900460ff1615610bfb576040517f3a81d6fc00000000000000000000000000000000000000000000000000000000815260040160405180910390fd5b5f816001015403610c38576040517f06f6808b00000000000000000000000000000000000000000000000000000000815260040160405180910390fd5b5f7f000000000000000000000000000000000000000000000000000000000000000073ffffffffffffffffffffffffffffffffffffffff166323b872dd333085600101546040518463ffffffff1660e01b8152600401610c9a93929190611470565b6020604051808303815f875af1158015610cb6573d5f5f3e3d5ffd5b505050506040513d601f19601f82011682018060405250810190610cda91906113ba565b905080610d13576040517f90b8ec1800000000000000000000000000000000000000000000000000000000815260040160405180910390fd5b6001826005015f3373ffffffffffffffffffffffffffffffffffffffff1673ffffffffffffffffffffffffffffffffffffffff1681526020019081526020015f205f6101000a81548160ff0219169083151502179055508160040133908060018154018082558091505060019003905f5260205f20015f9091909190916101000a81548173ffffffffffffffffffffffffffffffffffffffff021916908373ffffffffffffffffffffffffffffffffffffffff1602179055508160010154826002015f828254610de39190611412565b925050819055503373ffffffffffffffffffffffffffffffffffffffff16837f3c1931621919866b644a5a5281a766e9ee577ccae9dccdc3f24c43f32548ebf48460010154604051610e359190611323565b60405180910390a3505050565b5f5f5f5f5f60015f8781526020019081526020015f205f9054906101000a900460ff16610e9b576040517f5add554300000000000000000000000000000000000000000000000000000000815260040160405180910390fd5b5f5f5f8881526020019081526020015f209050805f015f9054906101000a900473ffffffffffffffffffffffffffffffffffffffff1681600101548260020154836003015f9054906101000a900460ff168460040180549050955095509550955095505091939590929450565b7f000000000000000000000000000000000000000000000000000000000000000081565b5f5ffd5b5f5ffd5b5f819050919050565b610f4681610f34565b8114610f50575f5ffd5b50565b5f81359050610f6181610f3d565b92915050565b5f60208284031215610f7c57610f7b610f2c565b5b5f610f8984828501610f53565b91505092915050565b5f8115159050919050565b610fa681610f92565b82525050565b5f602082019050610fbf5f830184610f9d565b92915050565b5f73ffffffffffffffffffffffffffffffffffffffff82169050919050565b5f819050919050565b5f611007611002610ffd84610fc5565b610fe4565b610fc5565b9050919050565b5f61101882610fed565b9050919050565b5f6110298261100e565b9050919050565b6110398161101f565b82525050565b5f6020820190506110525f830184611030565b92915050565b5f819050919050565b61106a81611058565b8114611074575f5ffd5b50565b5f8135905061108581611061565b92915050565b5f61109582610fc5565b9050919050565b6110a58161108b565b81146110af575f5ffd5b50565b5f813590506110c08161109c565b92915050565b5f5f5f606084860312156110dd576110dc610f2c565b5b5f6110ea86828701610f53565b93505060206110fb86828701611077565b925050604061110c868287016110b2565b9150509250925092565b5f5f6040838503121561112c5761112b610f2c565b5b5f61113985828601610f53565b925050602061114a858286016110b2565b9150509250929050565b5f5ffd5b5f5ffd5b5f5ffd5b5f5f83601f84011261117557611174611154565b5b8235905067ffffffffffffffff81111561119257611191611158565b5b6020830191508360208202830111156111ae576111ad61115c565b5b9250929050565b5f5f83601f8401126111ca576111c9611154565b5b8235905067ffffffffffffffff8111156111e7576111e6611158565b5b6020830191508360208202830111156112035761120261115c565b5b9250929050565b5f5f5f5f5f6060868803121561122357611222610f2c565b5b5f61123088828901610f53565b955050602086013567ffffffffffffffff81111561125157611250610f30565b5b61125d88828901611160565b9450945050604086013567ffffffffffffffff8111156112805761127f610f30565b5b61128c888289016111b5565b92509250509295509295909350565b6112a48161108b565b82525050565b6112b381611058565b82525050565b5f60a0820190506112cc5f83018861129b565b6112d960208301876112aa565b6112e660408301866112aa565b6112f36060830185610f9d565b61130060808301846112aa565b9695505050505050565b5f60208201905061131d5f83018461129b565b92915050565b5f6020820190506113365f8301846112aa565b92915050565b7f4e487b71000000000000000000000000000000000000000000000000000000005f52603260045260245ffd5b5f60408201905061137c5f83018561129b565b61138960208301846112aa565b9392505050565b61139981610f92565b81146113a3575f5ffd5b50565b5f815190506113b481611390565b92915050565b5f602082840312156113cf576113ce610f2c565b5b5f6113dc848285016113a6565b91505092915050565b7f4e487b71000000000000000000000000000000000000000000000000000000005f52601160045260245ffd5b5f61141c82611058565b915061142783611058565b925082820190508082111561143f5761143e6113e5565b5b92915050565b5f6020828403121561145a57611459610f2c565b5b5f611467848285016110b2565b91505092915050565b5f6060820190506114835f83018661129b565b611490602083018561129b565b61149d60408301846112aa565b94935050505056fea26469706673582212201da4683638024cd63a5e3f02bb536608c5fe8b0635105e1daed9b5f6cab1c29564736f6c63430008210033","linkReferences":{}},"methodIdentifiers":{"admin()":"f851a440","cUSD()":"1fccf672","createEvent(bytes32,uint256,address)":"b870f85f","distributePrize(bytes32,address[],uint256[])":"de501f13","emergencyRefund(bytes32)":"d92e0af2","eventExists(bytes32)":"118e58bd","getEventInfo(bytes32)":"f765b6b1","isParticipant(bytes32,address)":"c44a8923","register(bytes32)":"e1fa8e84"},"id":24}